:030000000203B543
:0C03B500787FE4F6D8FD75813E0203FC61
:10000E00120665120679752602AB13AA127D017FC0
:10001E000112061D7B3A7D037F011206B37526027F
:10002E00AB11AA107D047F0112061D7B3A7D067F5F
:10003E00011206B3752602AB15AA147D077F0112B5
:10004E00061D752602AB0BAA0A7D017F0212061D44
:10005E007B3A7D037F021206B3752602AB09AA080E
:10006E007D047F0C12061D7B3A7D067F021206B3BD
:10007E00752602AB0DAA0C7D077F0212061DE51533
:10008E00643C4514700F0511E51170020510E4F57E
:10009E0014F51580E9E511643C4510700EF510F568
:1000AE00110513E51370EE051280EA20B1197F14C5
:1000BE007E0012065030B1FD7F147E0012065005F0
:1000CE0015E5157002051420B0197F147E00120676
:1000DE005030B0FD7F147E001206500511E51170F0
:1000EE0002051020B2197F147E0012065030B2FDA8
:1000FE007F147E001206500513E5137002051220C0
:10010E00B31E7F147E0012065030B3FD7F147E00A6
:10011E00120650E4F508F509F50AF50BF50CF50D88
:10012E001201987516008F17E5167029E51724FE33
:10013E0060111460182402701C050DE50D70160573
:10014E000C80120509E509700C05088008050BE501
:10015E000B7002050AE515650D7004E514650C605B
:10016E0003020014E51165097004E51065086003CB
:10017E00020014E513650B7004E512650A600302B4
:0A018E0000147F64FE1205DD80CB33
:03000B0002058C5F
:10058C00C0E0C0D0758CFC758A17050FE50F7002A2
:10059C00050ED394E8E50E9403400E750E00750F0E
:0E05AC00000515E51570020514D0D0D0E03220
:0C069C000A183F065B4F666D7D077F6FFC
:10044100EF14B40800505490045675F003A4C5830A
:1004510025F0C5837302046E02047202047602045D
:100461007A02047E02048602048E020496D2A480DB
:100471000ED2A48012D2A48016D2A4801AC2A4D211
:10048100A3D2A28016C2A4D2A3C2A2800EC2A4C2C9
:10049100A3D2A28006C2A4C2A3C2A274182DF8E6F8
:0D04A100F5807F017E00120650E4F58022F8
:10065000EF1FAC0670011E4C600A7D027CEFDCFED1
:04066000DDFC80EC51
:010664002273
:10066500758901C28DD28C758CFC758A17D2A9D279
:04067500AFC2B92235
:06068D00C2A58F80D2A778
:080693007F027EEFDEFEDFFCBA
:01069B00223C
:0A06A900C2A612068DC2A702069336
:1005FF00CFCDCFCECCCE1203607C007D0A1203602C
:04060F00ED2430FFA7
:0A061300D2A612068DC2A7020693BC
:10063A00AE07BE0104ED148006BE0209ED243F4454
:06064A0080FF1206A92248
:100679007F381206A97F0C1206A97F061206A97FE8
:04068900010206A9BB
:0A06B300AC0312063AAF040206136E
:0605BA008B3C8A3D893EE6
:1005C00012063AE4FDAB3CAA3DA93E8D827583003C
:0C05D000120321FF60061206130D80E9E3
:0105DC0022FC
:0C0559007F0AEA24FFFDE434FFFC7E0072
:080565008E278F288C298D2AB6
:10056D007F017E00E4FBEBC3952AE5296480F874D6
:0E057D008098500AAC27AD2812034E0B80E880
:01058B00224D
:04061D008A248B257B
:1006210012063AAA26EAD39400400D120559AC24C9
:08063100AD251205FF1A80ED52
:01063900229E
:1004AE0012063AC3EA64809480400B7F2B12061327
:1004BE008A308B31800E7F2D120613C3E49BF531EB
:1004CE00E49AF530AA2FEAD39400400D120559ACE8
:0904DE0030AD311205FF1A80ED6A
:0104E70022F2
:0404E8008A348B3592
:1004EC0012063AAA36EAD3940040297F1012055B13
:1004FC00AC34AD35CFCDCFCECCCE120360EF540F94
:10050C00FEC3940AEE5004243080022437FF1206F6
:04051C00131A80D15D
:0105200022B8
:040521008A398B3A4E
:1005250012063AAA3BEAD394004028EA24FFFDE4E8
:1005350034FFFC7F027E00120565AC39AD3ACFCDA4
:10054500CFCECCCE120360EF54012430FF12061338
:030555001A80D237
:010558002280
:10019800E4F5227590FFC2972093137F14FE120690
:1001A800503093FD7F147E00120650752201209274
:1001B800147F147E001206503092FD7F147E0012C8
:1001C80006507522022091147F147E0012065030CA
:1001D80091FD7F147E001206507522032090147F33
:1001E800147E001206503090FD7F147E00120650D7
:1001F8007522047590FFC2962093147F147E001216
:1002080006503093FD7F147E00120650752205209B
:1002180092147F147E001206503092FD7F147E00E7
:100228001206507522062091147F147E0012065083
:100238003091FD7F147E001206507522072090141D
:100248007F147E001206503090FD7F147E00120647
:10025800507522087590FFC2952093147F147E0074
:100268001206503093FD7F147E0012065075220945
:100278002092147F147E001206503092FD7F147E67
:100288000012065075220A2091147F147E0012066F
:10029800503091FD7F147E0012065075220B20907D
:1002A800147F147E001206503090FD7F147E0012D9
:1002B800065075220C7590FFC2942093147F147E0B
:1002C800001206503093FD7F147E001206507522EE
:1002D8000D2092147F147E001206503092FD7F1478
:1002E8007E0012065075220E2091147F147E001293
:1002F80006503091FD7F147E0012065075220F20A3
:1003080090147F147E001206503090FD7F147E00FA
:08031800120650752210AF22FD
:0103200022BA
:05000300007FF7DFFEA5
:0100080022D5
:0405DD00AD07AC06B4
:1005E100E4FBFAED25E0FFEC33FEC3EB9FEA9E50FE
:0D05F1000CB2A51200030BBB00010A80E64E
:0105FE0022DA
:1003C10002000EE493A3F8E493A34003F68001F244
:1003D10008DFF48029E493A3F85407240CC8C3333D
:1003E100C4540F4420C8834004F456800146F6DF0C
:1003F100E4800B010204081020408090069CE47EFA
:10040100019360BCA3FF543F30E509541FFEE49300
:10041100A360010ECF54C025E060A840B8E493A3C7
:10042100FAE493A3F8E493A3C8C582C8CAC583CAF2
:10043100F0A3C8C582C8CAC583CADFE9DEE780BEAA
:0106A8000051
:10032100BB010CE58229F582E5833AF583E0225091
:1003310006E92582F8E622BBFE06E92582F8E222DB
:0D034100E58229F582E5833AF583E49322F5
:10034E00EF8DF0A4A8F0CF8CF0A428CE8DF0A42EC3
:02035E00FE227D
:10036000BC000BBE0029EF8DF084FFADF022E4CC81
:10037000F875F008EF2FFFEE33FEEC33FCEE9DEC4A
:10038000984005FCEE9DFE0FD5F0E9E4CEFD22ED90
:10039000F8F5F0EE8420D21CFEADF075F008EF2FDA
:1003A000FFED33FD4007985006D5F0F222C398FDCB
:0503B0000FD5F0EA2268
:00000001FF
